{
  "contractName": "CowTokenSale",
  "abi": [
    {
      "inputs": [
        {
          "internalType": "contract Cow",
          "name": "_tokenContract",
          "type": "address"
        },
        {
          "internalType": "uint256",
          "name": "_tokenPrice",
          "type": "uint256"
        }
      ],
      "payable": false,
      "stateMutability": "nonpayable",
      "type": "constructor"
    },
    {
      "constant": true,
      "inputs": [],
      "name": "tokenContract",
      "outputs": [
        {
          "internalType": "contract Cow",
          "name": "",
          "type": "address"
        }
      ],
      "payable": false,
      "stateMutability": "view",
      "type": "function"
    },
    {
      "constant": true,
      "inputs": [],
      "name": "tokenPrice",
      "outputs": [
        {
          "internalType": "uint256",
          "name": "",
          "type": "uint256"
        }
      ],
      "payable": false,
      "stateMutability": "view",
      "type": "function"
    }
  ],
  "bytecode": "0x608060405234801561001057600080fd5b506040516101e23803806101e28339818101604052604081101561003357600080fd5b810190808051906020019092919080519060200190929190505050336000806101000a81548173ffffffffffffffffffffffffffffffffffffffff021916908373ffffffffffffffffffffffffffffffffffffffff16021790555081600160006101000a81548173ffffffffffffffffffffffffffffffffffffffff021916908373ffffffffffffffffffffffffffffffffffffffff16021790555080600281905550505060fc806100e66000396000f3fe6080604052348015600f57600080fd5b506004361060325760003560e01c806355a373d61460375780637ff9b59614607f575b600080fd5b603d609b565b604051808273ffffffffffffffffffffffffffffffffffffffff1673ffffffffffffffffffffffffffffffffffffffff16815260200191505060405180910390f35b608560c1565b6040518082815260200191505060405180910390f35b600160009054906101000a900473ffffffffffffffffffffffffffffffffffffffff1681565b6002548156fea265627a7a723158202d9f9707554f85874d946ac8490306ff02056f8d2c7f4e4aa151207f677668ee64736f6c63430005100032",
  "source": "// SPDX-License-Identifier: MIT\r\npragma solidity >=0.4.21 <0.7.0;\r\nimport './Cow.sol';\r\n\r\ncontract CowTokenSale {\r\n    address admin;\r\n    Cow public tokenContract;\r\n    uint256 public tokenPrice;\r\n\r\n    constructor (Cow _tokenContract, uint256 _tokenPrice) public {\r\n        //Assign an admin\r\n        admin = msg.sender;\r\n        //Token Contract\r\n        tokenContract = _tokenContract;\r\n        //Token Price\r\n        tokenPrice = _tokenPrice;\r\n    } \r\n}",
  "sourcePath": "O:/Projects/ERC20Token/ERC20Token/contracts/CowTokenSale.sol",
  "compiler": {
    "name": "solc",
    "version": "0.5.16+commit.9c3226ce.Emscripten.clang"
  },
  "schemaVersion": "3.4.1",
  "updatedAt": "2021-05-23T09:07:58.645Z",
  "networkType": "ethereum",
  "devdoc": {
    "methods": {}
  },
  "userdoc": {
    "methods": {}
  }
}